:04000000D8EF00F045
:0C000800F2947F0ED516010E266E11003A
:0C0014000E0E0D6E0D2EFED70000120027
:0A0020009396CA840C0EBD12120064
:08002A00BE6ABD98BD9A1200E8
:100032000B6A0A6A096A00500402F4CF09F0F3CF8E
:1000420008F001500502F4CF0BF0F3CF0AF0005094
:100052000502F3500926F4500A22E86A0B220150E5
:100062000402F3500926F4500A22E86A0B2208C05F
:1000720000F009C001F00AC002F00BC003F0120048
:10008200C26A070EC012C08E4AC000F0003600904D
:10009200003600900050C212C280BBDFC282C2A2F0
:1000A20001D0FDD7C4CF01F0006AC3500012000E88
:0600B2000112C2901200D1
:1000B800720ED36EC40ED56EFF0E926E070E8012AE
:1000C800F80E9316F80E8116A00EF26ECA90CA9218
:0A00D800C70ECB6EA6DFA0DF1200FA
:1000E2000900F5CFE6FF0006FBE10106F9E1120087
:1000F200CB50010F006E016A000E01224AC004F0CB
:10010200000E056E95DF060E026E00C004F001C0FF
:1001120005F0025005E005320432059EFF0FFAD7C2
:10012200040E016E04C000F0015004E0003600909D
:10013200FF0FFBD7300E0014036E04C000F005C0A1
:1001420001F001320032019E01320032019E00C0F4
:0C015200BEFF0F0EBD160350BD121200C0
:10015E00220E0C6E086A096A0A6A0B6A0C06D8B47B
:10016E001FD0D8900B320A320932083203320232D3
:10017E0001320032D8A0F2D70C06D8B409D0045000
:10018E0008260550092206500A2207500B22EAD7EC
:10019E00045008260550092206500A2207500B2249
:0201AE0012003D
:1001B00090EC03F081DF2652D8B494D2256A040E65
:1001C000255C08E24A6A5DDF0050292601502A2298
:1001D000252AF5D72A3229322A9E2A3229322A9E06
:1001E000256A080E255C09E2010E4A6E4ADF0050BE
:1001F000272601502822252AF4D728322732289E84
:1002000028322732289E28322732289E256A040E5B
:10021000255C09E2020E4A6E34DF005023260150AD
:100220002422252AF4D724322332249E2432233256
:10023000249E29C004F02AC005F0000E066E076E49
:1002400027C000F028C001F0000E026E036E87DFA9
:1002500000C019F001C01AF002C01BF003C01CF06E
:1002600000C015F001C016F002C017F003C018F06E
:100270001F50155E2050165A2150175A2250185AF6
:100280002B50295C1D6E2C502A581E6EFBD181927A
:100290008180800E1818006E800E005C08E1000E50
:1002A000175C05E1000E165C02E1000E155C06E22B
:1002B00045500008006E000E016E06D045C000F0EB
:1002C000000E45BEFF0E016E00C045F0000E00BEE0
:1002D000FF0E016E00504824026E01504920036E4B
:1002E00002C048F003C049F0000E031802E1190EE5
:1002F000021805E1E10E486E000E496E0AD0000EAC
:10030000491802E1E60E481804E11E0E486E000E80
:10031000496EC0D14750000A46E1010E2A5C02E155
:100320005E0E295C07E32A50010802E12950720899
:1003300001E339D081908182010E2A5C02E1680ECE
:10034000295C19E229506808036E2AC004F0010EE6
:10035000045603C000F004C001F001320032019ED7
:1003600001320032019E01320032019E0050485E8F
:100370000150495A17D0680E295C036E010E2A58A5
:10038000046E03C000F004C001F001320032019E8F
:1003900001320032019E01320032019E0050482697
:1003A000015049226ED14750000A27E1010E2A5C14
:1003B00002E15E0E295C21E32A50010802E1295086
:1003C00072081BE348C03FF049C040F029C000F06C
:1003D0002AC001F027C004F028C005F02ADE00C0C2
:1003E00031F001C032F0000E336E346E010E476EF4
:1003F00041C048F042C049F044D14750010A4CE1A5
:10040000020E2A5C02E1580E295C07E32A5002081A
:1004100002E12950800801E33FD081928180020EE1
:100420002A5C02E16C0E295C1CE229506C08036E08
:100430002AC004F0020E045603C000F004C001F00C
:1004400001320032019E01320032019E013200323F
:10045000019E01320032019E0050485E0150495A0F
:100460001AD06C0E295C036E020E2A58046E03C06B
:1004700000F004C001F001320032019E013200326E
:10048000019E01320032019E01320032019E005075
:10049000482601504922F5D04750010A27E1020EB3
:1004A0002A5C02E1580E295C21E32A50020802E18D
:1004B000295080081BE348C041F049C042F029C0E0
:1004C00000F02AC001F027C004F028C005F0B1DD1B
:1004D00000C035F001C036F0000E376E386E020EE7
:1004E000476E43C048F044C049F0CBD04750020AA1
:1004F00046E1030E2A5C02E1430E295C07E32A5021
:10050000030802E12950890801E339D0060E81125F
:10051000030E2A5C02E1660E295C19E22950660886
:10052000036E2AC004F0030E0456050E026E03C0CB
:1005300000F004C001F0025005E001320032019EDB
:10054000FF0FFAD70050485E0150495A17D0660E87
:10055000295C036E030E2A58046E050E026E03C05A
:1005600000F004C001F0025005E001320032019EAB
:10057000FF0FFAD7005048260150492282D0475039
:10058000020AD8A47ED0030E2A5C02E1430E295C45
:10059000D8A077D02A50030802E12950890871E3D6
:1005A00048C043F049C044F029C000F02AC001F01F
:1005B00027C004F028C005F03CDD00C039F001C0C0
:1005C0003AF0000E3B6E3C6E030E476E2D6A2E6AAB
:1005D0002F6A306A3E6A030E3E5C40E23EC000F085
:1005E000000E016E00360090013600360090013694
:1005F000310E0024E96E000E0120EA6EEECF01F00C
:10060000EECF02F0EECF03F0EECF04F00450305CFA
:1006100008E103502F5C05E102502E5C02E101501D
:100620002D5C1AE23EC000F0000E016E0036009014
:100630000136003600900136310E0024E96E000EBE
:100640000120EA6EEECF2DF0EECF2EF0EECF2FF0A0
:10065000EECF30F03EC03DF03E2ABDD73DC000F0A9
:10066000000E016E0036009001363F0E0024E96E48
:10067000000E0120EA6EEECF48F0EECF49F0476A57
:10068000466A08D04650000AD8B401D64650010A3E
:10069000D8B440D629C02BF02AC02CF019C01FF0C6
:1006A0001AC020F01BC021F01CC022F0000E006E0A
:1006B0004950005C02E14850E60805E2E60E486E4B
:1006C000000E496E0AD0000E495C02E1190E485C2A
:1006D00004E2190E486E000E496E48C04AF009DD6A
:0A06E000D58E266A040067D5FFD707
:1007200010EE15F0350E006E010E016EEA0EF66E3B
:0E073000060EF76E000EF86E71EC00F012006F
:0406EA00000000000C
:0406EE000000000008
:0206F200000006
:0406F4000000000002
:0206F800000000
:0106FA0000FF
:0106FB0000FE
:0206FC000000FC
:0206FE000000FA
:020700000000F7
:0407020000000000F3
:0C070600000000000000000000000000E7
:0107120000E6
:0107130000E5
:06071400640064006400B3
:01071A0001DD
:01071B0000DD
:01071C0000DC
:02071D00E600F4
:020000040030CA
:0D000100C20F1EFF8081FF03C003E003401B
:00000001FF
