:04000000D8EF00F045
:0C000800F2947F0ED516010E576E110009
:0C0014000E0E0D6E0D2EFED70000120027
:0A0020009396CA840C0EBD12120064
:08002A00BE6ABD98BD9A1200E8
:100032000B6A0A6A096A00500402F4CF09F0F3CF8E
:1000420008F001500502F4CF0BF0F3CF0AF0005094
:100052000502F3500926F4500A22E86A0B220150E5
:100062000402F3500926F4500A22E86A0B2208C05F
:1000720000F009C001F00AC002F00BC003F0120048
:10008200C26A070EC012C08E5BC000F0003600903C
:10009200003600900050C212C280BBDFC282C2A2F0
:1000A20001D0FDD7C4CF01F0006AC3500012000E88
:0600B2000112C2901200D1
:1000B800720ED36EC60ED56EFF0E926E070E8012AC
:1000C800F80E9316F80E8116A00EF26ECA90CA9218
:0A00D800C70ECB6EA6DFA0DF1200FA
:1000E2000900F5CFE6FF0006FBE10106F9E1120087
:1000F200CB50010F006E016A000E01225BC004F0BA
:10010200000E056E95DF060E026E00C004F001C0FF
:1001120005F0025005E005320432059EFF0FFAD7C2
:10012200040E016E04C000F0015004E0003600909D
:10013200FF0FFBD7300E0014036E04C000F005C0A1
:1001420001F001320032019E01320032019E00C0F4
:0C015200BEFF0F0EBD160350BD121200C0
:10015E00220E0C6E086A096A0A6A0B6A0C06D8B47B
:10016E001FD0D8900B320A320932083203320232D3
:10017E0001320032D8A0F2D70C06D8B409D0045000
:10018E0008260550092206500A2207500B22EAD7EC
:10019E00045008260550092206500A2207500B2249
:0201AE0012003D
:1001B0000BEC04F081DF5752D8B407D3586A040E11
:1001C000585C0FE25B6A5DDF0050592601505A22ED
:1001D000020E5B6E56DF0050552601505622582AFB
:1001E000EED75A3259325A9E5ABC5A8E5A32593226
:1001F0005A9E5ABC5A8E56325532569E56BC568E10
:1002000056325532569E56BC568E586A080E585C69
:1002100009E2010E5B6E35DF00502F2601503022BF
:10022000582AF4D7030E006E2FC008F030C009F032
:10023000005007E009320832099E09BC098EFF0F01
:10024000F8D708C02FF009C030F056325532569E0C
:1002500056BC568E56325532569E56BC568E59C096
:1002600004F05AC005F0000E5ABEFF0E066E076E6F
:1002700008C000F009C001F0000E09BEFF0E026EBA
:10028000036E6DDF00C02BF001C02CF002C02DF01A
:1002900003C02EF073D2030E385CD8B0A8D038C09B
:1002A00000F0000E016E003600900136320E002480
:1002B000D96E000E0120DA6ED9CFE9FFDACFEAFF5E
:1002C000EECF01F0EECF02F002505A5C02E1015095
:1002D000595C1CE338C000F0000E016E003600903F
:1002E0000136250E0024D96E000E0120DA6ED9CF1A
:1002F000E9FFDACFEAFFEECF01F0EECF02F05A507D
:10030000025C02E15950015C01E371D038C000F099
:10031000000E016E003600900136170E0024D96ED3
:10032000000E0120DA6ED9CFE9FFDACFEAFFEECF77
:1003300001F0EECF02F002505A5C02E10150595C2C
:100340002BE238C000F0000E016E0036009001363E
:10035000170E0024E96E000E0120EA6E5950EE5C83
:10036000036E5A50EE58046E3850030F006E016A47
:10037000000E012200C002F003C000F004C001F032
:10038000025005E001320032019EFF0FFAD7005003
:10039000155E0150165A2AD038C000F0000E016ECA
:1003A000003600900136170E0024D96E000E012091
:1003B000DA6EDE50595C036EDE505A58046E3850C7
:1003C000030F006E016A000E012200C002F003C09C
:1003D00000F004C001F0025005E001320032019E3D
:1003E000FF0FFAD7005015260150162280D0030EB9
:1003F000385CD8B07CD038C000F0000E016E0036FA
:1004000000900136320E0024D96E000E0120DA6E03
:10041000D9CFE9FFDACFEAFFEECF01F0EECF02F05D
:1004200002505A5C02E10150595C61E338C000F0AF
:10043000000E016E003600900136250E0024D96EA4
:10044000000E0120DA6ED9CFE9FFDACFEAFFEECF56
:1004500001F0EECF02F05A50025C02E15950015C0B
:1004600046E31D0EE16E000EE26E3850E126D8B074
:10047000E22A15C0E6FF2E50245C08E12D50235CD3
:1004800005E12C50225C02E12B50215C04E22BC0E0
:1004900020F015C020F0382A030E385C0FE21D0E44
:1004A000E96E000EEA6E3850E926D8B0EA2AEECF9F
:1004B00015F0000E166E000E166E19D020C015F045
:1004C000000E166E396A3A6A4A6A4B6A486A496A85
:1004D0004C6A4D6A4E6A4F6A516A526A536A546A4C
:1004E000040E506E446A456A466A476A3F6A51D1B3
:1004F0002BC03BF02CC03CF02DC03DF02EC03EF098
:100500004C503B5E4D503C5A4E503D5A4F503E5A17
:100510003950595C406E3A505A58416E2E50475CE3
:1005200008E12D50465C05E12C50455C02E12B5062
:10053000445C0AE215C03FF02BC044F02CC045F0EB
:100540002DC046F02EC047F0800E5A18006E800E67
:10055000020A005C02E1A80E595C03E350C043F0BC
:1005600019D0800E5A18006E800E010A005C02E15C
:10057000D60E595C05E350C043F04332439E0AD087
:1005800050C043F04332439E4332439E4332439E26
:100590004332439E4C504D104E104F10D8B494D05F
:1005A000800E3E18006E800E005C08E1000E3D5C7F
:1005B00005E1000E3C5C02E1000E3B5C0AE3800EAC
:1005C0004118006E800E005C02E1000E405C01E309
:1005D0001AD0800E006E800E3E18005C08E13D507F
:1005E000000805E13C50000802E13B5000080AE326
:1005F000800E006E800E4118005C02E14050000841
:1006000001E301D005D04350155E000E165A04D008
:1006100043501526000E1622040E425C42E2800E64
:100620005418006E800E005C08E1000E535C05E17A
:10063000000E525C02E1000E515C10E3800E006E71
:10064000800E3E18005C08E13D50000805E13C507A
:10065000000802E13B50000801E320D0800E006E4C
:10066000800E5418005C08E15350000805E1525018
:10067000000802E15150000810E3800E3E18006EA1
:10068000800E005C08E1000E3D5C05E1000E3C5C64
:1006900002E1000E3B5C01E301D002D0422A01D00E
:1006A000426A4250040A06E15050000803E2503208
:1006B000509E426A5050000A07E1020E316E426AB3
:1006C0003FC015F0000E166E3BC051F03CC052F01A
:1006D0003DC053F03EC054F059C039F05AC03AF012
:1006E0002BC04CF02CC04DF02DC04EF02EC04FF062
:1006F00050D02BC001F02CC002F02DC003F02EC052
:1007000004F04450015E4550025A4650035A475087
:10071000045A0450000808E10350000805E10250A3
:10072000030802E10150E8081DE32BC001F02CC0D2
:1007300002F02DC003F02EC004F04450015E45507D
:10074000025A4650035A4750045A0450000808E120
:100750000350000805E10250030802E10150E808D7
:1007600001E30BD0010E316E446A456A466A476A5E
:10077000216A226A236A246A206A0BD03150010A56
:10078000D8B489D53150000AD8B4B2D63150020A53
:10079000B0E0000E006E1650005C02E11550E60855
:1007A00005E2E60E156E000E166E0AD0000E165CFF
:1007B00002E1200E155C04E2200E156E000E166E8E
:1007C00015C05BF096DCD58E576A0400F4D4FFD7D1
:1008160010EE15F0460E006E010E016ED00EF66E4D
:0E082600070EF76E000EF86E71EC00F0120077
:0207D000E60041
:0607D20068016C026603E1
:0307D8000000001E
:0107DB00001D
:0407DC000000000019
:0607E00072018002890392
:0407E600000000000F
:0207EA0000000D
:0107EC00020A
:0607ED005E015802430307
:0107F3000005
:0207F400000003
:0407F60000000000FF
:0107FA0000FE
:0207FB000000FC
:0107FD0000FB
:0107FE0000FA
:0407FF0000000000F6
:020803000000F3
:020805000000F1
:0408070000000000ED
:01080B0000EC
:04080C0000000000E8
:020810000000E6
:0108120000E5
:0108130000E4
:020814000000E2
:020000040030CA
:0D000100C20F1EFF8081FF03C003E003401B
:00000001FF
