:04000000EEEF00F02F
:0C000800F2947F0ED516010E266E11003A
:08001400BE6ABD98BD9A1200FE
:0C001C000E0E0D6E0D2EFED7000012001F
:0A0028009396CA840C0EBD1212005C
:100032000B6A0A6A096A00500402F4CF09F0F3CF8E
:1000420008F001500502F4CF0BF0F3CF0AF0005094
:100052000502F3500926F4500A22E86A0B220150E5
:100062000402F3500926F4500A22E86A0B2208C05F
:1000720000F009C001F00AC002F00BC003F0120048
:10008200CB50010F006E016A000E01224AC004F03B
:10009200000E056ECDDF060E026E00C004F001C038
:1000A20005F0025005E005320432059EFF0FFAD733
:1000B200040E016E04C000F0015004E0003600900E
:1000C200FF0FFBD7300E0014036E04C000F005C012
:1000D20001F001320032019E01320032019E00C065
:0C00E200BEFF0F0EBD160350BD12120031
:1000EE00C26A070EC012C08E4AC000F000360090E1
:1000FE00003600900050C212C28089DFC282C2A2B6
:10010E0001D0FDD7C4CF01F0006AC3500012000E1B
:06011E000112C290120064
:10012400720ED36EC40ED56EFF0E926E070E801241
:10013400F80E9316F80E8116A00EF26ECA90CA92AB
:0A014400C70ECB6E65DF6EDF120000
:10014E00800E4B18006E800E005C02E1000E4A5CC1
:10015E0008E24A500008006E4BC001F0000E015636
:0C016E0012004AC000F04BC001F012006B
:10017A00220E0C6E086A096A0A6A0B6A0C06D8B45F
:10018A001FD0D8900B320A320932083203320232B7
:10019A0001320032D8A0F2D70C06D8B409D00450E4
:1001AA0008260550092206500A2207500B22EAD7D0
:1001BA00045008260550092206500A2207500B222D
:0201CA00120021
:1001CC000900F5CFE6FF0006FBE10106F9E112009C
:1001DC00C3EC03F0A1DF2652D8B4B1D2256A040EC9
:1001EC00255C08E24A6A7DDF0050292601502A224C
:1001FC00252AF5D72A3229322A9E2A3229322A9EDA
:10020C00256A080E255C09E2010E4A6E6ADF005071
:10021C00272601502822252AF4D728322732289E57
:10022C0028322732289E28322732289E256A040E2F
:10023C00255C09E2020E4A6E54DF00502326015061
:10024C002422252AF4D724322332249E243223322A
:10025C00249E29C004F02AC005F0000E066E076E1D
:10026C0027C000F028C001F0000E026E036E7FDF85
:10027C0000C019F001C01AF002C01BF003C01CF042
:10028C0000C015F001C016F002C017F003C018F042
:10029C001F50155E2050165A2150175A2250185ACA
:1002AC002B50295C1D6E2C502A581E6E18D2819230
:1002BC00818015C04AF016C04BF043DF040E026E6D
:1002CC001FC003F020C004F021C005F022C006F0CE
:1002DC00025007E00632053204320332069EFF0F4D
:1002EC00F8D7000E01BEFF0E065C0AE1000E01BE3F
:1002FC00FF0E055C05E10150045C02E10050035C5B
:10030C0007E2010E426E44C040F045C041F0EFD10F
:10031C00800E1818006E800E005C08E1000E175C51
:10032C0005E1000E165C02E1000E155C06E243507E
:10033C000008006E000E016E06D043C000F0000EE7
:10034C0043BEFF0E016E00C043F0000E00BEFF0E58
:10035C00016E00504024026E01504120036E02C019
:10036C0040F003C041F0000E031802E1200E021809
:10037C0005E1E10E406E000E416E0AD0000E4118F0
:10038C0002E1E60E401804E1250E406E000E416EAF
:10039C00AED13F50000A46E1010E2A5C02E15E0E2E
:1003AC00295C07E32A50010802E12950720801E395
:1003BC0039D081908182010E2A5C02E1680E295CA1
:1003CC0019E229506808036E2AC004F0010E045685
:1003DC0003C000F004C001F001320032019E013272
:1003EC000032019E01320032019E0050405E0150ED
:1003FC00415A17D0680E295C036E010E2A58046E00
:10040C0003C000F004C001F001320032019E013241
:10041C000032019E01320032019E005040260150F4
:10042C0041225CD13F50000A1FE1010E2A5C02E11F
:10043C005E0E295C19E32A50010802E1295072086A
:10044C0013E340C044F041C045F019C031F01AC06C
:10045C0032F01BC033F01CC034F0010E3F6E46C0AE
:10046C0040F047C041F03AD13F50010A4CE1020E36
:10047C002A5C02E1580E295C07E32A50020802E1CB
:10048C002950800801E33FD081928180020E2A5CC2
:10049C0002E16C0E295C1CE229506C08036E2AC028
:1004AC0004F0020E045603C000F004C001F0013247
:1004BC000032019E01320032019E01320032019E57
:1004CC0001320032019E0050405E0150415A1AD058
:1004DC006C0E295C036E020E2A58046E03C000F0E9
:1004EC0004C001F001320032019E01320032019E43
:1004FC0001320032019E01320032019E0050402632
:10050C0001504122EBD03F50010A1FE1020E2A5C40
:10051C0002E1580E295C19E32A50020802E1295025
:10052C00800813E340C046F041C047F019C035F0D5
:10053C001AC036F01BC037F01CC038F0020E3F6EEC
:10054C0048C040F049C041F0C9D03F50020A46E1D2
:10055C00030E2A5C02E1430E295C07E32A500308D0
:10056C0002E12950890801E339D0060E8112030EED
:10057C002A5C02E1660E295C19E229506608036EBA
:10058C002AC004F0030E0456050E026E03C000F0E0
:10059C0004C001F0025005E001320032019EFF0F51
:1005AC00FAD70050405E0150415A17D0660E295CB4
:1005BC00036E030E2A58046E050E026E03C000F083
:1005CC0004C001F0025005E001320032019EFF0F21
:1005DC00FAD7005040260150412280D03F50020AE9
:1005EC00D8A477D0030E2A5C02E1430E295CD8A074
:1005FC0070D02A50030802E1295089086AE340C0F0
:10060C0048F041C049F019C039F01AC03AF01BC08B
:10061C003BF01CC03CF0030E3F6E2D6A2E6A2F6A15
:10062C00306A3E6A030E3E5C40E23EC000F0000EB3
:10063C00016E003600900136003600900136310E06
:10064C000024E96E000E0120EA6EEECF01F0EECF31
:10065C0002F0EECF03F0EECF04F00450305C08E172
:10066C0003502F5C05E102502E5C02E101502D5C21
:10067C001AE23EC000F0000E016E0036009001360A
:10068C00003600900136310E0024E96E000E012078
:10069C00EA6EEECF2DF0EECF2EF0EECF2FF0EECFA8
:1006AC0030F03EC03DF03E2ABDD73DC000F0000EFC
:1006BC00016E003600900136440E0024E96E000EE7
:1006CC000120EA6EEECF40F0EECF41F0030E3F6E0C
:1006DC0005D03F50030A02E1426A3F6A08D04250FB
:1006EC00000AD8B4E4D54250010AD8B452D629C075
:1006FC002BF02AC02CF019C01FF01AC020F01BC020
:10070C0021F01CC022F0000E006E4150005C02E192
:10071C004050E60805E2E60E406E000E416E0AD02F
:10072C00000E415C02E1200E405C04E2200E406EA3
:10073C00000E416E40C04AF09EDCD58E266A040045
:04074C004AD5FFD7B4
:1007860010EE15F0350E006E010E016E500EF66E6F
:0E079600070EF76E000EF86EE6EC00F0120093
:0407500000000000A5
:0407540000000000A1
:0207580000009F
:04075A00000000009B
:02075E00000099
:010760000098
:010761000097
:02076200000095
:02076400000093
:02076600000091
:04076800000000008D
:0C076C0000000000000000000000000081
:010778000080
:01077900007F
:01077A00007E
:02077B00E60096
:01077D00007B
:01077E000179
:06077F0064006400640048
:020000040030CA
:0D000100C20F1EFF8081FF03C003E003401B
:00000001FF
