:04000000D8EF00F045
:0C000800F2947F0ED516010E566E11000A
:0C0014000E0E0D6E0D2EFED70000120027
:0A0020009396CA840C0EBD12120064
:08002A00BE6ABD98BD9A1200E8
:100032000B6A0A6A096A00500402F4CF09F0F3CF8E
:1000420008F001500502F4CF0BF0F3CF0AF0005094
:100052000502F3500926F4500A22E86A0B220150E5
:100062000402F3500926F4500A22E86A0B2208C05F
:1000720000F009C001F00AC002F00BC003F0120048
:10008200C26A070EC012C08E5BC000F0003600903C
:10009200003600900050C212C280BBDFC282C2A2F0
:1000A20001D0FDD7C4CF01F0006AC3500012000E88
:0600B2000112C2901200D1
:1000B800720ED36EC60ED56EFF0E926E070E8012AC
:1000C800F80E9316F80E8116A00EF26ECA90CA9218
:0A00D800C70ECB6EA6DFA0DF1200FA
:1000E2000900F5CFE6FF0006FBE10106F9E1120087
:1000F200CB50010F006E016A000E01225BC004F0BA
:10010200000E056E95DF060E026E00C004F001C0FF
:1001120005F0025005E005320432059EFF0FFAD7C2
:10012200040E016E04C000F0015004E0003600909D
:10013200FF0FFBD7300E0014036E04C000F005C0A1
:1001420001F001320032019E01320032019E00C0F4
:0C015200BEFF0F0EBD160350BD121200C0
:10015E00220E0C6E086A096A0A6A0B6A0C06D8B47B
:10016E001FD0D8900B320A320932083203320232D3
:10017E0001320032D8A0F2D70C06D8B409D0045000
:10018E0008260550092206500A2207500B22EAD7EC
:10019E00045008260550092206500A2207500B2249
:0201AE0012003D
:1001B0005AEC04F081DF5652D8B456D3576A586AC5
:1001C000596A5A6A546A556A2F6A040E2F5C0FE204
:1001D0005B6A57DF0050572601505822020E5B6EB3
:1001E00050DF0050592601505A222F2AEED758329C
:1001F0005732589E58BC588E58325732589E58BC69
:10020000588E5A3259325A9E5ABC5A8E5A325932E4
:100210005A9E5ABC5A8E2F6A080E2F5C09E2010EB4
:100220005B6E2FDF00505426015055222F2AF4D741
:10023000030E026E54C000F055C001F0025007E0FA
:1002400001320032019E01BC018EFF0FF8D700C0C1
:1002500054F001C055F057C004F058C005F0000E2E
:1002600058BEFF0E066E076E000E01BEFF0E026E38
:10027000036E75DF00C02BF001C02CF002C02DF022
:1002800003C02EF0CAD2800E3718006E800E030A0B
:10029000005CD8B0C6D037C000F0000E37BEFF0EED
:1002A000016E003600900136310E0024D96E000E2A
:1002B0000120DA6ED9CFE9FFDACFEAFFEECF01F005
:1002C000EECF02F0800E5818006E800E0218005C0F
:1002D00002E10150575C22E337C000F0000E37BE48
:1002E000FF0E016E003600900136250E0024D96EF7
:1002F000000E0120DA6ED9CFE9FFDACFEAFFEECFA8
:1003000001F0EECF02F0800E0218006E800E581839
:10031000005C02E15750015C01E383D037C000F07C
:10032000000E37BEFF0E016E003600900136170E2C
:100330000024D96E000E0120DA6ED9CFE9FFDACFA2
:10034000EAFFEECF01F0EECF02F0800E5818006EFB
:10035000800E0218005C02E10150575C31E237C0A8
:1003600000F0000E37BEFF0E016E00360090013621
:10037000170E0024E96E000E0120EA6E5750EE5C65
:10038000036E5850EE58046E3750030F006E016A2A
:10039000000E37BEFF0E012200C002F003C000F0C5
:1003A00004C001F0025007E001320032019E01BC9E
:1003B000018EFF0FF8D70050155E0150165A30D04D
:1003C00037C000F0000E37BEFF0E016E0036009001
:1003D0000136170E0024D96E000E0120DA6EDE50B1
:1003E000575C036EDE505858046E3750030F006E92
:1003F000016A000E37BEFF0E012200C002F003C0EA
:1004000000F004C001F0025007E001320032019E0A
:1004100001BC018EFF0FF8D700501526015016229F
:10042000ABD0800E3718006E800E030A005CD8B087
:10043000A3D037C000F0000E37BEFF0E016E0036AD
:1004400000900136310E0024D96E000E0120DA6EC4
:10045000D9CFE9FFDACFEAFFEECF01F0EECF02F01D
:10046000800E5818006E800E0218005C02E10150E8
:10047000575CD8A081D037C000F0000E37BEFF0E09
:10048000016E003600900136250E0024D96E000E54
:100490000120DA6ED9CFE9FFDACFEAFFEECF01F023
:1004A000EECF02F0800E0218006E800E5818005C2D
:1004B00002E15750015C60E31D0EE16E000EE26E3A
:1004C0003750E126000E37BEFF0EE22215C0E6FFD0
:1004D000800E2418006E800E2E18005C08E12D504E
:1004E000235C05E12C50225C02E12B50215C04E2EC
:1004F0002BC020F015C020F0372A800E3718006E70
:10050000800E030A005C1DE21D0EE96E000EEA6E0D
:100510003750E926000E37BEFF0EEA22EE5210E0F9
:100520001D0EE96E000EEA6E3750E926000E37BE4A
:10053000FF0EEA22EECF15F0000E166E000E166EBC
:100540001BD0376A20C015F0000E166E386A396A63
:10055000496A4A6A476A486A4B6A4C6A4D6A4E6AF7
:10056000506A516A526A536A040E4F6E436A446A73
:10057000456A466A3E6A306A5BD12BC03AF02CC0AD
:100580003BF02DC03CF02EC03DF04B503A5E4C503D
:100590003B5A4D503C5A4E503D5A3850575C3F6E76
:1005A00039505858406E800E4618006E800E2E1836
:1005B000005C08E12D50455C05E12C50445C02E1F3
:1005C0002B50435C0AE215C03EF02BC043F02CC018
:1005D00044F02DC045F02EC046F0800E5818006E35
:1005E000800E020A005C02E1A80E575C03E34FC0D4
:1005F00042F019D0800E5818006E800E010A005C7F
:1006000002E1D60E575C05E34FC042F04232429EF3
:100610000AD04FC042F04232429E4232429E4232A3
:10062000429E4232429E4B504C104D104E10D8B458
:1006300094D0800E3D18006E800E005C08E1000E24
:100640003C5C05E1000E3B5C02E1000E3A5C0AE313
:10065000800E4018006E800E005C02E1000E3F5CD0
:1006600001E31AD0800E006E800E3D18005C08E198
:100670003C50000805E13B50000802E13A500008F8
:100680000AE3800E006E800E4018005C02E13F50CD
:10069000000801E301D005D04250155E000E165A45
:1006A00004D042501526000E1622040E415C42E290
:1006B000800E5318006E800E005C08E1000E525C44
:1006C00005E1000E515C02E1000E505C10E3800E6B
:1006D000006E800E3D18005C08E13C50000805E10A
:1006E0003B50000802E13A50000801E320D0800EA0
:1006F000006E800E5318005C08E15250000805E1BE
:100700005150000802E15050000810E3800E3D18DF
:10071000006E800E005C08E1000E3C5C05E1000EFE
:100720003B5C02E1000E3A5C01E301D002D0412AB9
:1007300001D0416A4150040A06E14F50000803E22B
:100740004F324F9E416A4F50000A07E1020E306E51
:10075000416A3EC015F0000E166E3AC050F03BC024
:1007600051F03CC052F03DC053F057C038F058C073
:1007700039F02BC04BF02CC04CF02DC04DF02EC0EA
:100780004EF056D02BC001F02CC002F02DC003F06B
:100790002EC004F04350015E4450025A4550035AA3
:1007A0004650045A800E006E800E0418005C08E16A
:1007B0000350000805E10250030802E10150E80877
:1007C00020E32BC001F02CC002F02DC003F02EC09E
:1007D00004F04350015E4450025A4550035A4650BB
:1007E000045A800E006E800E0418005C08E103506D
:1007F000000805E10250030802E10150E80801E3A6
:100800000BD0010E306E436A446A456A466A216A1B
:10081000226A236A246A206A0BD03050010AD8B4B5
:1008200032D53050000AD8B4A8D63050020AAAE017
:10083000000E006E1650005C02E11550F00805E253
:10084000F00E156E000E166E0AD0000E165C02E158
:10085000140E155C04E2140E156E000E166E15C013
:0E0860005BF047DCD58E566A0400A5D4FFD7A6
:1008B40010EE15F0460E006E010E016E6E0EF66E11
:0E08C400080EF76E000EF86E71EC00F01200D8
:02086E00E600A2
:0608700068016C02660342
:030876000000007F
:01087900007E
:04087A00000000007A
:06087E0072018002B603C6
:040884000000000070
:01088800006F
:01088900016D
:06088A005E015802430369
:010890000067
:02089100000065
:040893000000000061
:010897000060
:0208980000005E
:01089A00005D
:01089B00005C
:04089C000000000058
:0208A000000056
:0208A200000054
:0408A4000000000050
:0108A800004F
:0408A900000000004B
:0208AD00000049
:0108AF000048
:0208B000000046
:0208B200000044
:020000040030CA
:0D000100C20F1EFF8081FF03C003E003401B
:00000001FF
