:04000000D8EF00F045
:0C000800F2947F0ED516010E656E1100FB
:0C0014000E0E0D6E0D2EFED70000120027
:0A0020009396CA840C0EBD12120064
:08002A00BE6ABD98BD9A1200E8
:100032000B6A0A6A096A00500402F4CF09F0F3CF8E
:1000420008F001500502F4CF0BF0F3CF0AF0005094
:100052000502F3500926F4500A22E86A0B220150E5
:100062000402F3500926F4500A22E86A0B2208C05F
:1000720000F009C001F00AC002F00BC003F0120048
:10008200C26A070EC012C08E69C000F0003600902E
:10009200003600900050C212C280BBDFC282C2A2F0
:1000A20001D0FDD7C4CF01F0006AC3500012000E88
:0600B2000112C2901200D1
:1000B800720ED36EC40ED56EFF0E926E070E8012AE
:1000C800F80E9316F80E8116A00EF26ECA90CA9218
:0A00D800C70ECB6EA6DFA0DF1200FA
:1000E2000900F5CFE6FF0006FBE10106F9E1120087
:1000F200CB50010F006E016A000E012269C004F0AC
:10010200000E056E95DF060E026E00C004F001C0FF
:1001120005F0025005E005320432059EFF0FFAD7C2
:10012200040E016E04C000F0015004E0003600909D
:10013200FF0FFBD7300E0014036E04C000F005C0A1
:1001420001F001320032019E01320032019E00C0F4
:0C015200BEFF0F0EBD160350BD121200C0
:10015E00220E0C6E086A096A0A6A0B6A0C06D8B47B
:10016E001FD0D8900B320A320932083203320232D3
:10017E0001320032D8A0F2D70C06D8B409D0045000
:10018E0008260550092206500A2207500B22EAD7EC
:10019E00045008260550092206500A2207500B2249
:0201AE0012003D
:1001B00074EC04F081DF6552D8B469D3666A040E2A
:1001C000665C0FE2696A5DDF0050672601506822B5
:1001D000020E696E56DF0050632601506422662AC3
:1001E000EED768326732689E68BC688E68326732C4
:1001F000689E68BC688E64326332649E64BC648EA0
:1002000064326332649E64BC648E666A080E665C07
:1002100009E2010E696E35DF00503D2601503E2295
:10022000662AF4D7030E006E3DC008F03EC009F008
:10023000005007E009320832099E09BC098EFF0F01
:10024000F8D708C03DF009C03EF064326332649EC6
:1002500064BC648E64326332649E64BC648E67C026
:1002600004F068C005F0000E68BEFF0E066E076E53
:1002700008C000F009C001F0000E09BEFF0E026EBA
:10028000036E6DDF00C039F001C03AF002C03BF0F0
:1002900003C03CF0C9D2030E465CD8B0A8D046C01B
:1002A00000F0000E016E003600900136400E002472
:1002B000D96E000E0120DA6ED9CFE9FFDACFEAFF5E
:1002C000EECF01F0EECF02F00250685C02E1015087
:1002D000675C1CE346C000F0000E016E0036009023
:1002E0000136330E0024D96E000E0120DA6ED9CF0C
:1002F000E9FFDACFEAFFEECF01F0EECF02F068506F
:10030000025C02E16750015C01E371D046C000F07D
:10031000000E016E003600900136170E0024D96ED3
:10032000000E0120DA6ED9CFE9FFDACFEAFFEECF77
:1003300001F0EECF02F00250685C02E10150675C10
:100340002BE246C000F0000E016E00360090013630
:10035000170E0024E96E000E0120EA6E6750EE5C75
:10036000036E6850EE58046E4650030F006E016A2B
:10037000000E012200C002F003C000F004C001F032
:10038000025005E001320032019EFF0FFAD7005003
:10039000155E0150165A2AD046C000F0000E016EBC
:1003A000003600900136170E0024D96E000E012091
:1003B000DA6EDE50675C036EDE506858046E46509D
:1003C000030F006E016A000E012200C002F003C09C
:1003D00000F004C001F0025005E001320032019E3D
:1003E000FF0FFAD70050152601501622E7D0030E52
:1003F000465CD8B0E3D046C000F0000E016E003677
:1004000000900136400E0024D96E000E0120DA6EF5
:10041000D9CFE9FFDACFEAFFEECF01F0EECF02F05D
:100420000250685C02E10150675CD8A0C7D046C0AA
:1004300000F0000E016E003600900136330E0024ED
:10044000D96E000E0120DA6ED9CFE9FFDACFEAFFCC
:10045000EECF01F0EECF02F06850025C02E167508F
:10046000015CD8A0ABD046C000F0000E016E003693
:10047000009001361D0E0024E16E000E0120E26E98
:1004800015C0E6FF16C0E6FF46C000F0000E016E84
:10049000003600900136003600900136270E002409
:1004A000E16E000E0120E26E39C0E6FF3AC0E6FFC1
:1004B0003BC0E6FF3CC0E6FF462A030E465C12E264
:1004C00046C000F0000E016E0036009001361D0E91
:1004D0000024E96E000E0120EA6EEECF15F0EECF9B
:1004E00016F06CD0236A246A256A266A666A030EAF
:1004F000665C4FE266C000F0000E016E00360090B0
:100500000136003600900136270E0024E96E000EF9
:100510000120EA6EEECF01F0EECF02F0EECF03F055
:10052000EECF04F00450265C08E10350255C05E1A1
:100530000250245C02E10150235C29E266C000F015
:10054000000E016E00360090013600360090013634
:10055000270E0024E96E000E0120EA6EEECF23F094
:10056000EECF24F0EECF25F0EECF26F066C000F0FF
:10057000000E016E0036009001361D0E0024E96E5B
:10058000000E0120EA6EEECF15F0EECF16F0662ACF
:10059000AED7476A486A586A596A566A576A5A6AA9
:1005A0005B6A5C6A5D6A5F6A606A616A626A040EBD
:1005B0005E6E526A536A546A556A4D6A40D139C0B8
:1005C00049F03AC04AF03BC04BF03CC04CF05A50A6
:1005D000495E5B504A5A5C504B5A5D504C5A4750EA
:1005E000675C4E6E485068584F6E3C50555C08E151
:1005F0003B50545C05E13A50535C02E13950525C87
:100600000AE215C04DF039C052F03AC053F03BC079
:1006100054F03CC055F0800E6818006E800E020A3F
:10062000005C02E1A80E675C03E35EC051F019D0E4
:10063000800E6818006E800E010A005C02E1D60E82
:10064000675C05E35EC051F05132519E0AD05EC036
:1006500051F05132519E5132519E5132519E513280
:10066000519E5A505B105C105D10D8B494D0800E2F
:100670004C18006E800E005C08E1000E4B5C05E13A
:10068000000E4A5C02E1000E495C0AE3800E4F183E
:10069000006E800E005C02E1000E4E5C01E31AD099
:1006A000800E006E800E4C18005C08E14B50000874
:1006B00005E14A50000802E1495000080AE3800EB3
:1006C000006E800E4F18005C02E14E50000801E3FE
:1006D00001D005D05150155E000E165A04D051506D
:1006E0001526000E1622040E505C42E2800E006EAB
:1006F000800E6218005C08E16150000805E160505E
:10070000000802E15F50000810E2800E4C18006EF5
:10071000800E005C08E1000E4B5C05E1000E4A5CB7
:1007200002E1000E495C01E220D0800E6218006EEA
:10073000800E005C08E1000E615C05E1000E605C6B
:1007400002E1000E5F5C10E2800E006E800E4C181D
:10075000005C08E14B50000805E14A50000802E146
:100760004950000801E201D002D0502A01D0506A5D
:100770005050040A06E15E50000803E25E325E9EBD
:10078000506A5E50000A07E1020E3F6E506A4DC08B
:1007900015F0000E166E49C05FF04AC060F04BC005
:1007A00061F04CC062F04BD039C001F03AC002F0A9
:1007B0003BC003F03CC004F05250015E5350025A5B
:1007C0005450035A5550045A0450000808E103508D
:1007D000000805E10250170802E1015070081DE30E
:1007E00039C001F03AC002F03BC003F03CC004F055
:1007F0005250015E5350025A5450035A5550045AF5
:100800000450000808E10350000805E102501708F1
:1008100002E10150700801E306D0010E3F6E526AFA
:10082000536A546A556A0BD03F50010AD8B433D585
:100830003F50000AD8B4C3D63F50020AB5E067C0A3
:1008400047F068C048F039C05AF03AC05BF03BC08E
:100850005CF03CC05DF0000E006E1650005C02E1E2
:100860001550E60805E2E60E156E000E166E0AD06B
:10087000000E165C02E1200E155C04E2200E156EDF
:10088000000E166E15C069F034DCD58E656A040062
:0408900092D4FFD728
:1008E80010EE15F0540E006E010E016E940EF66EA9
:0E08F800080EF76E000EF86E71EC00F01200A4
:02089400E6007C
:0608960068016C0266031C
:06089C0000000000000056
:0408A2000000000052
:0C08A60000000000000000000000000046
:0608B200720180028903BF
:0408B800000000003C
:0208BC0000003A
:0108BE000039
:0608BF005E015802430334
:0108C5000032
:0208C600000030
:0408C800000000002C
:0108CC00002B
:0208CD00000029
:0108CF000028
:0108D0000027
:0408D1000000000023
:0208D500000021
:0208D70000001F
:0408D900000000001B
:0108DD00001A
:0408DE000000000016
:0208E200000014
:0108E4000013
:0108E5000012
:0208E600000010
:020000040030CA
:0D000100C20F1EFF8081FF03C003E003401B
:00000001FF
