:04000000D8EF00F045
:0C000800F2947F0ED516010E566E11000A
:0C0014000E0E0D6E0D2EFED70000120027
:0A0020009396CA840C0EBD12120064
:08002A00BE6ABD98BD9A1200E8
:100032000B6A0A6A096A00500402F4CF09F0F3CF8E
:1000420008F001500502F4CF0BF0F3CF0AF0005094
:100052000502F3500926F4500A22E86A0B220150E5
:100062000402F3500926F4500A22E86A0B2208C05F
:1000720000F009C001F00AC002F00BC003F0120048
:10008200C26A070EC012C08E5BC000F0003600903C
:10009200003600900050C212C280BBDFC282C2A2F0
:1000A20001D0FDD7C4CF01F0006AC3500012000E88
:0600B2000112C2901200D1
:1000B800720ED36EC50ED56EFF0E926E070E8012AD
:1000C800F80E9316F80E8116A00EF26ECA90CA9218
:0A00D800C70ECB6EA6DFA0DF1200FA
:1000E2000900F5CFE6FF0006FBE10106F9E1120087
:1000F200CB50010F006E016A000E01225BC004F0BA
:10010200000E056E95DF060E026E00C004F001C0FF
:1001120005F0025005E005320432059EFF0FFAD7C2
:10012200040E016E04C000F0015004E0003600909D
:10013200FF0FFBD7300E0014036E04C000F005C0A1
:1001420001F001320032019E01320032019E00C0F4
:0C015200BEFF0F0EBD160350BD121200C0
:10015E00220E0C6E086A096A0A6A0B6A0C06D8B47B
:10016E001FD0D8900B320A320932083203320232D3
:10017E0001320032D8A0F2D70C06D8B409D0045000
:10018E0008260550092206500A2207500B22EAD7EC
:10019E00045008260550092206500A2207500B2249
:0201AE0012003D
:1001B000BCEC04F081DF5652D8B4B8D3576A586A01
:1001C000596A5A6A546A556A2A6A040E2A5C08E215
:1001D0005B6A57DF00505726015058222A2AF5D76C
:1001E00058325732589E58BC588E58325732589E03
:1001F00058BC588E2A6A100E2A5C09E2010E5B6E0A
:1002000040DF00505426015055222A2AF4D7040E0C
:10021000006E005007E055325432559E55BC558E45
:10022000FF0FF8D75AD3800E2B18006E800E030AEA
:10023000005CD8B0C6D02BC000F0000E2BBEFF0E65
:10024000016E003600900136320E0024D96E000E89
:100250000120DA6ED9CFE9FFDACFEAFFEECF01F065
:10026000EECF02F0800E5818006E800E0218005C6F
:1002700002E10150575C22E32BC000F0000E2BBEC0
:10028000FF0E016E0036009001362C0E0024D96E50
:10029000000E0120DA6ED9CFE9FFDACFEAFFEECF08
:1002A00001F0EECF02F0800E0218006E800E58189A
:1002B000005C02E15750015C01E383D02BC000F0E9
:1002C000000E2BBEFF0E016E003600900136230E8D
:1002D0000024D96E000E0120DA6ED9CFE9FFDACF03
:1002E000EAFFEECF01F0EECF02F0800E5818006E5C
:1002F000800E0218005C02E10150575C31E22BC015
:1003000000F0000E2BBEFF0E016E0036009001368D
:10031000230E0024E96E000E0120EA6E5750EE5CB9
:10032000036E5850EE58046E2B50010F006E016A98
:10033000000E2BBEFF0E012200C002F003C000F031
:1003400004C001F0025007E001320032019E01BCFE
:10035000018EFF0FF8D70050185E0150195A30D0A7
:100360002BC000F0000E2BBEFF0E016E0036009079
:100370000136230E0024D96E000E0120DA6EDE5005
:10038000575C036EDE505858046E2B50010F006E00
:10039000016A000E2BBEFF0E012200C002F003C056
:1003A00000F004C001F0025007E001320032019E6B
:1003B00001BC018EFF0FF8D70050182601501922FA
:1003C000CDD0800E2B18006E800E030A005CD8B0D2
:1003D000C5D02BC000F0000E2BBEFF0E016E003604
:1003E00000900136320E0024D96E000E0120DA6E24
:1003F000D9CFE9FFDACFEAFFEECF01F0EECF02F07E
:10040000800E5818006E800E0218005C02E1015048
:10041000575CD8A0A3D02BC000F0000E2BBEFF0E5F
:10042000016E0036009001362C0E0024D96E000EAD
:100430000120DA6ED9CFE9FFDACFEAFFEECF01F083
:10044000EECF02F0800E0218006E800E5818005C8D
:1004500002E15750015CD8A081D0150EE16E000E6C
:10046000E26E2B50E126000E2BBEFF0EE22218C0DA
:10047000E6FF57C004F058C005F0000E58BEFF0E4E
:10048000066E076E54C000F055C001F0000E55BE58
:10049000FF0E026E036E63DE00C01AF001C01BF097
:1004A00002C01CF003C01DF0800E2218046E800EE6
:1004B0000318045C08E10250215C05E10150205C56
:1004C00002E100501F5C0AE21AC01FF01BC020F0BE
:1004D0001CC021F01DC022F018C01EF02B2A800E77
:1004E0002B18006E800E030A005C1DE2150EE96EEB
:1004F000000EEA6E2B50E926000E2BBEFF0EEA22FC
:10050000EE5210E0150EE96E000EEA6E2B50E92651
:10051000000E2BBEFF0EEA22EECF18F0000E196E71
:10052000000E196E1BD02B6A1EC018F0000E196E3B
:10053000386A396A496A4A6A476A486A4B6A4C6A41
:100540004D6A4E6A506A516A526A536A040E4F6E7F
:10055000436A446A456A466A3E6A296ACAD157C0F4
:1005600004F058C005F0000E58BEFF0E066E076E70
:1005700054C000F055C001F0000E55BEFF0E026ED3
:10058000036EEDDD00C01AF001C01BF002C01CF0CC
:1005900003C01DF000C03AF001C03BF002C03CF0C7
:1005A00003C03DF04B503A5E4C503B5A4D503C5AC4
:1005B0004E503D5A3850575C3F6E39505858406E37
:1005C000800E4618046E800E0318045C08E1025089
:1005D000455C05E10150445C02E10050435C0AE2E5
:1005E00018C03EF01AC043F01BC044F01CC045F0D8
:1005F0001DC046F0800E5818006E800E020A005C86
:1006000002E1A80E575C03E34FC042F015D0800E04
:100610005818006E800E010A005C02E1D60E575C8D
:1006200005E34FC042F04236429006D04FC042F040
:1006300042364290423642904B504C104D104E1074
:10064000D8B494D0800E3D18006E800E005C08E196
:10065000000E3C5C05E1000E3B5C02E1000E3A5CE2
:100660000AE3800E4018006E800E005C02E1000E6E
:100670003F5C01E31AD0800E006E800E3D18005CD6
:1006800008E13C50000805E13B50000802E13A5007
:1006900000080AE3800E006E800E4018005C02E144
:1006A0003F50000801E301D005D04250185E000E13
:1006B000195A04D042501826000E1922030E415C2C
:1006C00042E2800E5318006E800E005C08E1000EBE
:1006D000525C05E1000E515C02E1000E505C10E33B
:1006E000800E006E800E3D18005C08E13C50000852
:1006F00005E13B50000802E13A50000801E320D038
:10070000800E006E800E5318005C08E15250000805
:1007100005E15150000802E15050000810E3800E3E
:100720003D18006E800E005C08E1000E3C5C05E1A7
:10073000000E3B5C02E1000E3A5C01E301D002D006
:10074000412A01D0416A4150030A06E14F50010895
:1007500003E24F324F9E416A4F50010A07E1020EF9
:10076000296E416A3EC018F0000E196E3AC050F072
:100770003BC051F03CC052F03DC053F057C038F080
:1007800058C039F01AC04BF01BC04CF01CC04DF0E3
:100790001DC04EF0AED057C004F058C005F0000E9A
:1007A00058BEFF0E066E076E54C000F055C001F033
:1007B000000E55BEFF0E026E036ED1DC00C01AF0B3
:1007C00001C01BF002C01CF003C01DF000C009F006
:1007D00001C00AF002C00BF003C00CF04350095EE8
:1007E00044500A5A45500B5A46500C5A040E086E93
:1007F00000C004F001C005F002C006F003C007F01D
:10080000085009E00732063205320432079E07BC61
:10081000078EFF0FF6D7800E0718006E800E0C189B
:10082000005C08E10B50065C05E10A50055C02E142
:100830000950045C36E343C005F044C006F045C0EF
:1008400007F046C008F01A50055E1B50065A1C50AF
:10085000075A1D50085A040E006E1AC001F01BC042
:1008600002F01CC003F01DC004F0005009E0043287
:10087000033202320132049E04BC048EFF0FF6D70D
:10088000800E0418006E800E0818005C08E1075006
:10089000035C05E10650025C02E10550015C01E3E6
:1008A0001BD0010E296E436A446A456A466A1F6A74
:1008B000206A216A226A1E6A150EE96E000EEA6E2F
:1008C0002B50E926000E2BBEFF0EEA22EECF18F0C9
:1008D000000E196E000E196E0CD02950010AD8B402
:1008E000A2D42950000AD8B43AD62950020AD8B462
:1008F00052D7000E006E1950005C02E11850F0084B
:1009000005E2F00E186E000E196E0AD0000E195C8A
:1009100002E1140E185C04E2140E186E000E196E3B
:1009200018C05BF079EC00F0D58E566A040043D411
:02093000FFD7EF
:1009780010EE15F0460E006E010E016E320EF66E88
:0E098800090EF76E000EF86E71EC00F0120012
:03093200C878552D
:02093500E600DA
:0409370000000000BC
:01093B0000BB
:04093C0000000000B7
:0609400068016C02660371
:0109460001AF
:0109470000AF
:0109480000AE
:060949006D0176027A0345
:06094F0063016202520385
:020955000000A0
:04095700000000009C
:01095B00009B
:02095C00000099
:01095E000098
:01095F000097
:040960000000000093
:02096400000091
:0209660000008F
:04096800000000008B
:01096C00008A
:04096D000000000086
:02097100000084
:010973000083
:02097400000081
:0209760000007F
:020000040030CA
:0D000100C20F1EFF8081FF03C003E003401B
:00000001FF
