:04000000E0EF00F03D
:0C000800F2947F0ED516010E506E110010
:0C0014000E0E0D6E0D2EFED70000120027
:0A0020009396CA840C0EBD12120064
:08002A00BE6ABD98BD9A1200E8
:100032000B6A0A6A096A00500402F4CF09F0F3CF8E
:1000420008F001500502F4CF0BF0F3CF0AF0005094
:100052000502F3500926F4500A22E86A0B220150E5
:100062000402F3500926F4500A22E86A0B2208C05F
:1000720000F009C001F00AC002F00BC003F0120048
:10008200220E0C6E086A096A0A6A0B6A0C06D8B458
:100092001FD0D8900B320A320932083203320232B0
:1000A20001320032D8A0F2D70C06D8B409D00450DD
:1000B20008260550092206500A2207500B22EAD7C9
:1000C200045008260550092206500A2207500B2226
:0200D20012001A
:0400D4008182120013
:0400D8008180120011
:1000DC00CB50010F006E016A000E012259C004F0D2
:1000EC00000E056EA0DF060E026E00C004F001C00B
:1000FC0005F0025005E005320432059EFF0FFAD7D9
:10010C00040E016E04C000F0015004E000360090B3
:10011C00FF0FFBD7300E0014036E04C000F005C0B7
:10012C0001F001320032019E01320032019E00C00A
:0C013C00BEFF0F0EBD160350BD121200D6
:100148000900F5CFE6FF0006FBE10106F9E1120020
:10015800720ED36EC60ED56EFF0E926E070E80120B
:10016800F80E9316F80E8116A00EF26ECA90CA9277
:0A017800C70ECB6E56DF50DF1200F9
:040182008190120056
:040186008192120050
:10018A00C26A070EC012C08E59C000F00036009035
:10019A00003600900050C212C28037DFC282C2A26B
:1001AA0001D0FDD7C4CF01F0006AC3500012000E7F
:0601BA000112C2901200C8
:1001C0004EEC04F0C9DF5052D8B443D34F6A040E4A
:1001D0004F5C08E2596AD9DF00504D2601504E228B
:1001E0004F2AF5D74E324D324E9E4EBC4E8E4E3279
:1001F0004D324E9E4EBC4E8E4F6A080E4F5C09E249
:10020000010E596EC2DF00505126015052224F2A72
:10021000F4D7030E026E51C000F052C001F002503C
:1002200007E001320032019E01BC018EFF0FF8D7BA
:1002300000C051F001C052F04DC004F04EC005F0B6
:10024000000E4EBEFF0E066E076E000E01BEFF0EC4
:10025000026E036E16DF00C055F001C056F002C0FA
:1002600057F003C058F0CED2800E5318006E800EA7
:10027000030A005CD8B0C6D053C000F0000E53BED5
:10028000FF0E016E003600900136270E0024D96E55
:10029000000E0120DA6ED9CFE9FFDACFEAFFEECF08
:1002A00001F0EECF02F0800E4E18006E800E0218A4
:1002B000005C02E101504D5C22E353C000F0000EEF
:1002C00053BEFF0E016E003600900136210E002451
:1002D000D96E000E0120DA6ED9CFE9FFDACFEAFF3E
:1002E000EECF01F0EECF02F0800E0218006E800E0D
:1002F0004E18005C02E14D50015C01E383D053C015
:1003000000F0000E53BEFF0E016E00360090013665
:100310002F0E0024D96E000E0120DA6ED9CFE9FF2E
:10032000DACFEAFFEECF01F0EECF02F0800E4E18EA
:10033000006E800E0218005C02E101504D5C31E25B
:1003400053C000F0000E53BEFF0E016E0036009049
:1003500001362F0E0024E96E000E0120EA6E4D508A
:10036000EE5C036E4E50EE58046E5350030F006E59
:10037000016A000E53BEFF0E012200C002F003C04E
:1003800000F004C001F0025007E001320032019E8B
:1003900001BC018EFF0FF8D700502D5E01502E5A80
:1003A00030D053C000F0000E53BEFF0E016E003679
:1003B000009001362F0E0024D96E000E0120DA6E57
:1003C000DE504D5C036EDE504E58046E5350030FEA
:1003D000006E016A000E53BEFF0E012200C002F043
:1003E00003C000F004C001F0025007E00132003207
:1003F000019E01BC018EFF0FF8D700502D26015041
:100400002E22ABD0800E5318006E800E030A005CC3
:10041000D8B0A3D053C000F0000E53BEFF0E016E43
:10042000003600900136270E0024D96E000E012000
:10043000DA6ED9CFE9FFDACFEAFFEECF01F0EECFE7
:1004400002F0800E4E18006E800E0218005C02E171
:1004500001504D5CD8A081D053C000F0000E53BEB7
:10046000FF0E016E003600900136210E0024D96E79
:10047000000E0120DA6ED9CFE9FFDACFEAFFEECF26
:1004800001F0EECF02F0800E0218006E800E4E18C2
:10049000005C02E14D50015C60E31E0EE16E000E57
:1004A000E26E5350E126000E53BEFF0EE2222DC035
:1004B000E6FF800E1918006E800E5818005C08E1E7
:1004C0005750185C05E15650175C02E15550165C18
:1004D00004E255C015F02DC015F0532A800E5318B4
:1004E000006E800E030A005C1DE21E0EE96E000E17
:1004F000EA6E5350E926000E53BEFF0EEA22EE527A
:1005000010E01E0EE96E000EEA6E5350E926000E52
:1005100053BEFF0EEA22EECF2DF0000E2E6E000E1F
:100520002E6E1BD0536A15C02DF0000E2E6E1C6A65
:100530001D6A1A6A1B6A356A366A446A456A466ADF
:10054000476A406A416A426A436A040E4C6E486ACE
:10055000496A4A6A4B6A3F6A546ABEDD14DE5DD15D
:10056000B9DD0FDE55C039F056C03AF057C03BF048
:1005700058C03CF04450395E45503A5A46503B5AB8
:1005800047503C5A1C504D5C376E1D504E58386ECB
:10059000800E4B18006E800E5818005C08E1575012
:1005A0004A5C05E15650495C02E15550485C0AE25C
:1005B0002DC03FF055C048F056C049F057C04AF032
:1005C00058C04BF0800E4E18006E800E020A005C80
:1005D00002E1A80E4D5C03E34CC03EF019D0800E42
:1005E0004E18006E800E010A005C02E1D60E4D5CD2
:1005F00005E34CC03EF03E323E9E0AD04CC03EF079
:100600003E323E9E3E323E9E3E323E9E3E323E9EBA
:100610004450451046104710D8B494D0800E3C1872
:10062000006E800E005C08E1000E3B5C05E1000EF0
:100630003A5C02E1000E395C0AE3800E3818006E65
:10064000800E005C02E1000E375C01E31AD0800EE0
:10065000006E800E3C18005C08E13B50000805E18C
:100660003A50000802E1395000080AE3800E006E9B
:10067000800E3818005C02E13750000801E301D019
:1006800005D03E502D5E000E2E5A04D03E502D2631
:10069000000E2E22040E3D5C42E2800E4318006ED6
:1006A000800E005C08E1000E425C05E1000E415C3A
:1006B00002E1000E405C10E3800E006E800E3C18DC
:1006C000005C08E13B50000805E13A50000802E1F7
:1006D0003950000801E320D0800E006E800E4318D0
:1006E000005C08E14250000805E14150000802E1C9
:1006F0004050000810E3800E3C18006E800E005C35
:1007000008E1000E3B5C05E1000E3A5C02E1000EE0
:10071000395C01E301D002D03D2A01D03D6A3D5051
:10072000040A06E14C50000803E24C324C9E3D6A3C
:100730004C50000A07E1020E546E3D6A3FC02DF096
:10074000000E2E6E39C040F03AC041F03BC042F07E
:100750003CC043F04DC01CF04EC01DF055C044F0ED
:1007600056C045F057C046F058C047F056D055C067
:1007700001F056C002F057C003F058C004F04850D2
:10078000015E4950025A4A50035A4B50045A800E97
:10079000006E800E0418005C08E10350000805E1BB
:1007A0000250030802E10150E80820E355C001F0BF
:1007B00056C002F057C003F058C004F04850015E24
:1007C0004950025A4A50035A4B50045A800E006E48
:1007D000800E0418005C08E10350000805E1025097
:1007E000030802E10150E80801E30BD0010E546E4A
:1007F000486A496A4A6A4B6A166A176A186A196A25
:10080000156A0BD05450010AD8B42ED55450000AA2
:10081000D8B4A6D65450020AAAE0000E006E2E509C
:10082000005C02E12D50F00805E2F00E2D6E000E86
:100830002E6E0AD0000E2E5C02E1140E2D5C04E236
:10084000140E2D6E000E2E6E2DC059F047DCD58E85
:08085000506A0400B8D4FFD780
:10089C0010EE15F0440E006E010E016E580EF66E41
:0E08AC00080EF76E000EF86EA4EC00F01200BD
:01085800009F
:04085900000000009B
:02085D00000099
:02085F00000097
:0308610000000094
:0608640072018002B603E0
:06086A005E015802430389
:02087000E600A0
:0608720068016C02660340
:0208780000007E
:02087A0000007C
:04087C000000000078
:010880000077
:010881000076
:010882000075
:040883000000000071
:04088700000000006D
:04088B000000000069
:01088F000068
:02089000000066
:010892000065
:010893000064
:02089400000062
:010896000061
:01089700025E
:04089800000000005C
:020000040030CA
:0D000100C20F1EFF8081FF03C003E003401B
:00000001FF
